{
  "contractName": "CarSharing",
  "abi": [
    {
      "inputs": [],
      "stateMutability": "nonpayable",
      "type": "constructor"
    },
    {
      "anonymous": false,
      "inputs": [
        {
          "indexed": true,
          "internalType": "address",
          "name": "funder",
          "type": "address"
        },
        {
          "indexed": false,
          "internalType": "uint256",
          "name": "amount",
          "type": "uint256"
        }
      ],
      "name": "FundsDeposited",
      "type": "event"
    },
    {
      "inputs": [
        {
          "internalType": "address",
          "name": "",
          "type": "address"
        }
      ],
      "name": "funders",
      "outputs": [
        {
          "internalType": "bool",
          "name": "",
          "type": "bool"
        }
      ],
      "stateMutability": "view",
      "type": "function",
      "constant": true
    },
    {
      "inputs": [],
      "name": "last_completed_migration",
      "outputs": [
        {
          "internalType": "uint256",
          "name": "",
          "type": "uint256"
        }
      ],
      "stateMutability": "view",
      "type": "function",
      "constant": true
    },
    {
      "inputs": [],
      "name": "owner",
      "outputs": [
        {
          "internalType": "address",
          "name": "",
          "type": "address"
        }
      ],
      "stateMutability": "view",
      "type": "function",
      "constant": true
    },
    {
      "inputs": [
        {
          "internalType": "uint256",
          "name": "completed",
          "type": "uint256"
        }
      ],
      "name": "setCompleted",
      "outputs": [],
      "stateMutability": "nonpayable",
      "type": "function"
    },
    {
      "inputs": [
        {
          "internalType": "uint256",
          "name": "amount",
          "type": "uint256"
        }
      ],
      "name": "withdraw",
      "outputs": [],
      "stateMutability": "nonpayable",
      "type": "function"
    },
    {
      "inputs": [],
      "name": "getFunds",
      "outputs": [],
      "stateMutability": "payable",
      "type": "function",
      "payable": true
    },
    {
      "inputs": [
        {
          "internalType": "address",
          "name": "funder",
          "type": "address"
        }
      ],
      "name": "addFunder",
      "outputs": [],
      "stateMutability": "nonpayable",
      "type": "function"
    },
    {
      "inputs": [
        {
          "internalType": "address",
          "name": "funder",
          "type": "address"
        }
      ],
      "name": "removeFunder",
      "outputs": [],
      "stateMutability": "nonpayable",
      "type": "function"
    },
    {
      "inputs": [],
      "name": "rental",
      "outputs": [],
      "stateMutability": "payable",
      "type": "function",
      "payable": true
    },
    {
      "inputs": [],
      "name": "getOwner",
      "outputs": [
        {
          "internalType": "address",
          "name": "",
          "type": "address"
        }
      ],
      "stateMutability": "view",
      "type": "function",
      "constant": true
    }
  ],
  "bytecode": "0x608060405234801561001057600080fd5b50336000806101000a81548173ffffffffffffffffffffffffffffffffffffffff021916908373ffffffffffffffffffffffffffffffffffffffff160217905550610ae3806100606000396000f3fe6080604052600436106100915760003560e01c80634d9b3735116100595780634d9b37351461015a578063893d20e8146101645780638da5cb5b1461018f578063dcd18dd4146101ba578063fdacd576146101e357610091565b8063031b367714610096578063181d13fc146100d35780631bbe9d8c146100dd5780632e1a7d4d14610106578063445df0ac1461012f575b600080fd5b3480156100a257600080fd5b506100bd60048036038101906100b891906107d2565b61020c565b6040516100ca919061081a565b60405180910390f35b6100db61022c565b005b3480156100e957600080fd5b5061010460048036038101906100ff91906107d2565b6102de565b005b34801561011257600080fd5b5061012d6004803603810190610128919061086b565b6103c7565b005b34801561013b57600080fd5b506101446104bf565b60405161015191906108a7565b60405180910390f35b6101626104c5565b005b34801561017057600080fd5b506101796105a1565b60405161018691906108d1565b60405180910390f35b34801561019b57600080fd5b506101a46105ca565b6040516101b191906108d1565b60405180910390f35b3480156101c657600080fd5b506101e160048036038101906101dc91906107d2565b6105ee565b005b3480156101ef57600080fd5b5061020a6004803603810190610205919061086b565b6106d7565b005b60026020528060005260406000206000915054906101000a900460ff1681565b6000341161026f576040517f08c379a000000000000000000000000000000000000000000000000000000000815260040161026690610949565b60405180910390fd5b60003073ffffffffffffffffffffffffffffffffffffffff16346040516102959061099a565b60006040518083038185875af1925050503d80600081146102d2576040519150601f19603f3d011682016040523d82523d6000602084013e6102d7565b606091505b5050905050565b60008054906101000a900473ffffffffffffffffffffffffffffffffffffffff1673ffffffffffffffffffffffffffffffffffffffff163373ffffffffffffffffffffffffffffffffffffffff161461036c576040517f08c379a000000000000000000000000000000000000000000000000000000000815260040161036390610a21565b60405180910390fd5b6001600260008373ffffffffffffffffffffffffffffffffffffffff1673ffffffffffffffffffffffffffffffffffffffff16815260200190815260200160002060006101000a81548160ff02191690831515021790555050565b60008054906101000a900473ffffffffffffffffffffffffffffffffffffffff1673ffffffffffffffffffffffffffffffffffffffff163373ffffffffffffffffffffffffffffffffffffffff1614610455576040517f08c379a000000000000000000000000000000000000000000000000000000000815260040161044c90610a21565b60405180910390fd5b60008054906101000a900473ffffffffffffffffffffffffffffffffffffffff1673ffffffffffffffffffffffffffffffffffffffff166108fc829081150290604051600060405180830381858888f193505050501580156104bb573d6000803e3d6000fd5b5050565b60015481565b600260003373ffffffffffffffffffffffffffffffffffffffff1673ffffffffffffffffffffffffffffffffffffffff16815260200190815260200160002060009054906101000a900460ff16610551576040517f08c379a000000000000000000000000000000000000000000000000000000000815260040161054890610a8d565b60405180910390fd5b3373ffffffffffffffffffffffffffffffffffffffff167f543ba50a5eec5e6178218e364b1d0f396157b3c8fa278522c2cb7fd99407d4743460405161059791906108a7565b60405180910390a2565b60008060009054906101000a900473ffffffffffffffffffffffffffffffffffffffff16905090565b60008054906101000a900473ffffffffffffffffffffffffffffffffffffffff1681565b60008054906101000a900473ffffffffffffffffffffffffffffffffffffffff1673ffffffffffffffffffffffffffffffffffffffff163373ffffffffffffffffffffffffffffffffffffffff161461067c576040517f08c379a000000000000000000000000000000000000000000000000000000000815260040161067390610a21565b60405180910390fd5b6000600260008373ffffffffffffffffffffffffffffffffffffffff1673ffffffffffffffffffffffffffffffffffffffff16815260200190815260200160002060006101000a81548160ff02191690831515021790555050565b60008054906101000a900473ffffffffffffffffffffffffffffffffffffffff1673ffffffffffffffffffffffffffffffffffffffff163373ffffffffffffffffffffffffffffffffffffffff1614610765576040517f08c379a000000000000000000000000000000000000000000000000000000000815260040161075c90610a21565b60405180910390fd5b8060018190555050565b600080fd5b600073ffffffffffffffffffffffffffffffffffffffff82169050919050565b600061079f82610774565b9050919050565b6107af81610794565b81146107ba57600080fd5b50565b6000813590506107cc816107a6565b92915050565b6000602082840312156107e8576107e761076f565b5b60006107f6848285016107bd565b91505092915050565b60008115159050919050565b610814816107ff565b82525050565b600060208201905061082f600083018461080b565b92915050565b6000819050919050565b61084881610835565b811461085357600080fd5b50565b6000813590506108658161083f565b92915050565b6000602082840312156108815761088061076f565b5b600061088f84828501610856565b91505092915050565b6108a181610835565b82525050565b60006020820190506108bc6000830184610898565b92915050565b6108cb81610794565b82525050565b60006020820190506108e660008301846108c2565b92915050565b600082825260208201905092915050565b7f506c656173652073656e6420736f6d6520657468657200000000000000000000600082015250565b60006109336016836108ec565b915061093e826108fd565b602082019050919050565b6000602082019050818103600083015261096281610926565b9050919050565b600081905092915050565b50565b6000610984600083610969565b915061098f82610974565b600082019050919050565b60006109a582610977565b9150819050919050565b7f546869732066756e6374696f6e206973207265737472696374656420746f207460008201527f686520636f6e74726163742773206f776e657200000000000000000000000000602082015250565b6000610a0b6033836108ec565b9150610a16826109af565b604082019050919050565b60006020820190508181036000830152610a3a816109fe565b9050919050565b7f596f7520617265206e6f7420616e20617070726f7665642066756e6465720000600082015250565b6000610a77601e836108ec565b9150610a8282610a41565b602082019050919050565b60006020820190508181036000830152610aa681610a6a565b905091905056fea2646970667358221220bbaedd8b039f4fbfb63334616e8bb1998e25d13ccd3a74dce781aed07ad374b364736f6c63430008110033",
  "immutableReferences": {},
  "source": "// SPDX-License-Identifier: MIT\r\npragma solidity >=0.4.22 <0.9.0;\r\n\r\ncontract CarSharing {\r\n    address public owner;\r\n    uint public last_completed_migration;\r\n\r\n    mapping(address => bool) public funders;\r\n\r\n    event FundsDeposited(address indexed funder, uint amount);\r\n\r\n    constructor() {\r\n        owner = msg.sender;\r\n    }\r\n\r\n    modifier restricted() {\r\n        require(\r\n            msg.sender == owner,\r\n            \"This function is restricted to the contract's owner\"\r\n        );\r\n        _;\r\n    }\r\n\r\n    function setCompleted(uint completed) public restricted {\r\n        last_completed_migration = completed;\r\n    }\r\n\r\n    function withdraw(uint amount) public restricted {\r\n        payable(owner).transfer(amount);\r\n    }\r\n\r\n    function getFunds() public payable {\r\n        require(funders[msg.sender], \"You are not an approved funder\");\r\n        emit FundsDeposited(msg.sender, msg.value);\r\n    }\r\n\r\n    function addFunder(address funder) public restricted {\r\n        funders[funder] = true;\r\n    }\r\n\r\n    function removeFunder(address funder) public restricted {\r\n        funders[funder] = false;\r\n    }\r\n\r\n    function rental() public payable {\r\n        require(msg.value > 0, \"Please send some ether\");\r\n        (bool sent, ) = address(this).call{value: msg.value}(\"\");\r\n    }\r\n\r\n    function getOwner() public view returns (address) {\r\n        return owner;\r\n    }\r\n}",
  "sourcePath": "C:\\Users\\97254\\Documents\\Tech2023\\project\\contracts\\CarSharing.sol",
  "compiler": {
    "name": "solc",
    "version": "0.8.17+commit.8df45f5f.Emscripten.clang"
  },
  "schemaVersion": "3.4.11",
  "updatedAt": "2023-05-01T11:19:00.565Z",
  "networkType": "ethereum",
  "devdoc": {
    "kind": "dev",
    "methods": {},
    "version": 1
  },
  "userdoc": {
    "kind": "user",
    "methods": {},
    "version": 1
  }
}